{
  "contractName": "Migrations",
  "abi": [
    {
      "inputs": [],
      "stateMutability": "nonpayable",
      "type": "constructor"
    },
    {
      "inputs": [],
      "name": "last_completed_migration",
      "outputs": [
        {
          "internalType": "uint256",
          "name": "",
          "type": "uint256"
        }
      ],
      "stateMutability": "view",
      "type": "function",
      "constant": true
    },
    {
      "inputs": [],
      "name": "owner",
      "outputs": [
        {
          "internalType": "address",
          "name": "",
          "type": "address"
        }
      ],
      "stateMutability": "view",
      "type": "function",
      "constant": true
    },
    {
      "inputs": [
        {
          "internalType": "uint256",
          "name": "completed",
          "type": "uint256"
        }
      ],
      "name": "setCompleted",
      "outputs": [],
      "stateMutability": "nonpayable",
      "type": "function"
    }
  ],
  "bytecode": "0x608060405234801561001057600080fd5b50600080546001600160a01b0319163317905560fd806100316000396000f3fe6080604052348015600f57600080fd5b5060043610603c5760003560e01c8063445df0ac1460415780638da5cb5b146059578063fdacd57614607b575b600080fd5b60476097565b60408051918252519081900360200190f35b605f609d565b604080516001600160a01b039092168252519081900360200190f35b609560048036036020811015608f57600080fd5b503560ac565b005b60015481565b6000546001600160a01b031681565b6000546001600160a01b031633141560c45760018190555b5056fea2646970667358221220881b8de3c8ae69e3002ae1b332f7c4af74a633032136368aa516f5e2b1d2fbfc64736f6c63430006060033",
  "immutableReferences": {},
  "source": "// SPDX-License-Identifier: MIT\n//pragma solidity >=0.4.25 <0.7.0;\npragma solidity ^0.6.6;\n\ncontract Migrations {\n  address public owner;\n  uint public last_completed_migration;\n\n  modifier restricted() {\n    if (msg.sender == owner) _;\n  }\n\n  constructor() public {\n    owner = msg.sender;\n  }\n\n  function setCompleted(uint completed) public restricted {\n    last_completed_migration = completed;\n  }\n}\n",
  "sourcePath": "/Users/johnjudge/Desktop/Code/Meridian/backend/swap/amm-evm-example/meridian-swap-periphery/contracts/Migrations.sol",
  "compiler": {
    "name": "solc",
    "version": "0.6.6+commit.6c089d02.Emscripten.clang"
  },
  "schemaVersion": "3.4.2",
  "updatedAt": "2024-06-04T21:43:20.889Z",
  "networkType": "ethereum",
  "devdoc": {
    "methods": {}
  },
  "userdoc": {
    "methods": {}
  }
}