{
  "contractName": "MeridianFactory",
  "abi": [
    {
      "inputs": [
        {
          "internalType": "address",
          "name": "_feeToSetter",
          "type": "address"
        }
      ],
      "payable": false,
      "stateMutability": "nonpayable",
      "type": "constructor"
    },
    {
      "anonymous": false,
      "inputs": [
        {
          "indexed": true,
          "internalType": "address",
          "name": "token0",
          "type": "address"
        },
        {
          "indexed": true,
          "internalType": "address",
          "name": "token1",
          "type": "address"
        },
        {
          "indexed": false,
          "internalType": "address",
          "name": "pair",
          "type": "address"
        },
        {
          "indexed": false,
          "internalType": "uint256",
          "name": "",
          "type": "uint256"
        }
      ],
      "name": "PairCreated",
      "type": "event"
    },
    {
      "constant": true,
      "inputs": [],
      "name": "INIT_CODE_PAIR_HASH",
      "outputs": [
        {
          "internalType": "bytes32",
          "name": "",
          "type": "bytes32"
        }
      ],
      "payable": false,
      "stateMutability": "view",
      "type": "function"
    },
    {
      "constant": true,
      "inputs": [
        {
          "internalType": "uint256",
          "name": "",
          "type": "uint256"
        }
      ],
      "name": "allPairs",
      "outputs": [
        {
          "internalType": "address",
          "name": "",
          "type": "address"
        }
      ],
      "payable": false,
      "stateMutability": "view",
      "type": "function"
    },
    {
      "constant": true,
      "inputs": [],
      "name": "feeTo",
      "outputs": [
        {
          "internalType": "address",
          "name": "",
          "type": "address"
        }
      ],
      "payable": false,
      "stateMutability": "view",
      "type": "function"
    },
    {
      "constant": true,
      "inputs": [],
      "name": "feeToSetter",
      "outputs": [
        {
          "internalType": "address",
          "name": "",
          "type": "address"
        }
      ],
      "payable": false,
      "stateMutability": "view",
      "type": "function"
    },
    {
      "constant": true,
      "inputs": [
        {
          "internalType": "address",
          "name": "",
          "type": "address"
        },
        {
          "internalType": "address",
          "name": "",
          "type": "address"
        }
      ],
      "name": "getPair",
      "outputs": [
        {
          "internalType": "address",
          "name": "",
          "type": "address"
        }
      ],
      "payable": false,
      "stateMutability": "view",
      "type": "function"
    },
    {
      "constant": true,
      "inputs": [],
      "name": "allPairsLength",
      "outputs": [
        {
          "internalType": "uint256",
          "name": "",
          "type": "uint256"
        }
      ],
      "payable": false,
      "stateMutability": "view",
      "type": "function"
    },
    {
      "constant": false,
      "inputs": [
        {
          "internalType": "address",
          "name": "tokenA",
          "type": "address"
        },
        {
          "internalType": "address",
          "name": "tokenB",
          "type": "address"
        }
      ],
      "name": "createPair",
      "outputs": [
        {
          "internalType": "address",
          "name": "pair",
          "type": "address"
        }
      ],
      "payable": false,
      "stateMutability": "nonpayable",
      "type": "function"
    },
    {
      "constant": false,
      "inputs": [
        {
          "internalType": "address",
          "name": "_feeTo",
          "type": "address"
        }
      ],
      "name": "setFeeTo",
      "outputs": [],
      "payable": false,
      "stateMutability": "nonpayable",
      "type": "function"
    },
    {
      "constant": false,
      "inputs": [
        {
          "internalType": "address",
          "name": "_feeToSetter",
          "type": "address"
        }
      ],
      "name": "setFeeToSetter",
      "outputs": [],
      "payable": false,
      "stateMutability": "nonpayable",
      "type": "function"
    }
  ],
  "bytecode": "0x608060405234801561001057600080fd5b50604051612aa7380380612aa78339818101604052602081101561003357600080fd5b5051600180546001600160a01b0319166001600160a01b03909216919091179055612a44806100636000396000f3fe608060405234801561001057600080fd5b50600436106100835760003560e01c8063017e7e5814610088578063094b7415146100ac5780631e3dd18b146100b4578063574f2ba3146100d15780635855a25a146100eb578063a2e74af6146100f3578063c9c653961461011b578063e6a4390514610149578063f46901ed14610177575b600080fd5b61009061019d565b604080516001600160a01b039092168252519081900360200190f35b6100906101ac565b610090600480360360208110156100ca57600080fd5b50356101bb565b6100d96101e2565b60408051918252519081900360200190f35b6100d96101e8565b6101196004803603602081101561010957600080fd5b50356001600160a01b031661027b565b005b6100906004803603604081101561013157600080fd5b506001600160a01b03813581169160200135166102f2565b6100906004803603604081101561015f57600080fd5b506001600160a01b038135811691602001351661061b565b6101196004803603602081101561018d57600080fd5b50356001600160a01b0316610641565b6000546001600160a01b031681565b6001546001600160a01b031681565b600381815481106101c857fe5b6000918252602090912001546001600160a01b0316905081565b60035490565b6040516101f7602082016106b8565b6020820181038252601f19601f820116604052506040516020018082805190602001908083835b6020831061023d5780518252601f19909201916020918201910161021e565b6001836020036101000a0380198251168184511680821785525050505050509050019150506040516020818303038152906040528051906020012081565b6001546001600160a01b031633146102d0576040805162461bcd60e51b815260206004820152601360248201527226b2b934b234b0b71d102327a92124a22222a760691b604482015290519081900360640190fd5b600180546001600160a01b0319166001600160a01b0392909216919091179055565b6000816001600160a01b0316836001600160a01b0316141561035b576040805162461bcd60e51b815260206004820152601d60248201527f4d6572696469616e3a204944454e544943414c5f414444524553534553000000604482015290519081900360640190fd5b600080836001600160a01b0316856001600160a01b03161061037e578385610381565b84845b90925090506001600160a01b0382166103da576040805162461bcd60e51b81526020600482015260166024820152754d6572696469616e3a205a45524f5f4144445245535360501b604482015290519081900360640190fd5b6001600160a01b0382811660009081526002602090815260408083208585168452909152902054161561044c576040805162461bcd60e51b81526020600482015260156024820152744d6572696469616e3a20504149525f45584953545360581b604482015290519081900360640190fd5b60606040518060200161045e906106b8565b6020820181038252601f19601f8201166040525090506000838360405160200180836001600160a01b03166001600160a01b031660601b8152601401826001600160a01b03166001600160a01b031660601b815260140192505050604051602081830303815290604052805190602001209050808251602084016000f56040805163485cc95560e01b81526001600160a01b038781166004830152868116602483015291519297509087169163485cc9559160448082019260009290919082900301818387803b15801561053157600080fd5b505af1158015610545573d6000803e3d6000fd5b505050506001600160a01b0384811660008181526002602081815260408084208987168086529083528185208054978d166001600160a01b031998891681179091559383528185208686528352818520805488168517905560038054600181018255958190527fc2575a0e9e593c00f959f8c92f12db2869c3395a3b0502d05e2516446f71f85b90950180549097168417909655925483519283529082015281517f0d3648bd0f6ba80134a33ba9275ac585d9d315f0ad8355cddefde31afa28d0e9929181900390910190a35050505092915050565b60026020908152600092835260408084209091529082529020546001600160a01b031681565b6001546001600160a01b03163314610696576040805162461bcd60e51b815260206004820152601360248201527226b2b934b234b0b71d102327a92124a22222a760691b604482015290519081900360640190fd5b600080546001600160a01b0319166001600160a01b0392909216919091179055565b61234a806106c68339019056fe60806040526001600c5534801561001557600080fd5b5060405146908060526122f88239604080519182900360520182208282018252600c83526b4d6572696469616e204c507360a01b6020938401528151808301835260018152603160f81b908401528151808401919091527fac1cd77f3b617e6f0ddc7a2028148def77500d0c09c0d83de05f396e1c87ba9c818301527fc89efdaa54c0f20c7adf612882df0950f5a951637e0307cdcb4c672f298b8bc6606082015260808101949094523060a0808601919091528151808603909101815260c09094019052825192019190912060035550600580546001600160a01b031916331790556121f1806101076000396000f3fe608060405234801561001057600080fd5b50600436106101495760003560e01c8063022c0d9f1461014e57806306fdde03146101da5780630902f1ac14610257578063095ea7b31461028f5780630dfe1681146102cf57806318160ddd146102f357806323b872dd1461030d57806330adf81f14610343578063313ce5671461034b5780633644e51514610369578063485cc955146103715780635909c0d51461039f5780635a3d5493146103a75780636a627842146103af57806370a08231146103d55780637464fc3d146103fb5780637ecebe001461040357806389afcb441461042957806395d89b4114610468578063a9059cbb14610470578063ba9a7a561461049c578063bc25cf77146104a4578063c45a0155146104ca578063d21220a7146104d2578063d505accf146104da578063dd62ed3e1461052b578063fff6cae914610559575b600080fd5b6101d86004803603608081101561016457600080fd5b8135916020810135916001600160a01b036040830135169190810190608081016060820135600160201b81111561019a57600080fd5b8201836020820111156101ac57600080fd5b803590602001918460018302840111600160201b831117156101cd57600080fd5b509092509050610561565b005b6101e2610ab0565b6040805160208082528351818301528351919283929083019185019080838360005b8381101561021c578181015183820152602001610204565b50505050905090810190601f1680156102495780820380516001836020036101000a031916815260200191505b509250505060405180910390f35b61025f610ad8565b604080516001600160701b03948516815292909316602083015263ffffffff168183015290519081900360600190f35b6102bb600480360360408110156102a557600080fd5b506001600160a01b038135169060200135610b02565b604080519115158252519081900360200190f35b6102d7610b19565b604080516001600160a01b039092168252519081900360200190f35b6102fb610b28565b60408051918252519081900360200190f35b6102bb6004803603606081101561032357600080fd5b506001600160a01b03813581169160208101359091169060400135610b2e565b6102fb610bc8565b610353610bda565b6040805160ff9092168252519081900360200190f35b6102fb610bdf565b6101d86004803603604081101561038757600080fd5b506001600160a01b0381358116916020013516610be5565b6102fb610c68565b6102fb610c6e565b6102fb600480360360208110156103c557600080fd5b50356001600160a01b0316610c74565b6102fb600480360360208110156103eb57600080fd5b50356001600160a01b0316610f73565b6102fb610f85565b6102fb6004803603602081101561041957600080fd5b50356001600160a01b0316610f8b565b61044f6004803603602081101561043f57600080fd5b50356001600160a01b0316610f9d565b6040805192835260208301919091528051918290030190f35b6101e2611342565b6102bb6004803603604081101561048657600080fd5b506001600160a01b038135169060200135611369565b6102fb611376565b6101d8600480360360208110156104ba57600080fd5b50356001600160a01b031661137c565b6102d76114e6565b6102d76114f5565b6101d8600480360360e08110156104f057600080fd5b506001600160a01b03813581169160208101359091169060408101359060608101359060ff6080820135169060a08101359060c00135611504565b6102fb6004803603604081101561054157600080fd5b506001600160a01b03813581169160200135166116f1565b6101d861170e565b600c546001146105ab576040805162461bcd60e51b815260206004820152601060248201526f13595c9a591a585b8e881313d0d2d15160821b604482015290519081900360640190fd5b6000600c55841515806105be5750600084115b6105f95760405162461bcd60e51b815260040180806020018281038252602481526020018061210f6024913960400191505060405180910390fd5b600080610604610ad8565b5091509150816001600160701b0316871080156106295750806001600160701b031686105b61067a576040805162461bcd60e51b815260206004820181905260248201527f4d6572696469616e3a20494e53554646494349454e545f4c4951554944495459604482015290519081900360640190fd5b60065460075460009182916001600160a01b039182169190811690891682148015906106b85750806001600160a01b0316896001600160a01b031614155b610700576040805162461bcd60e51b81526020600482015260146024820152734d6572696469616e3a20494e56414c49445f544f60601b604482015290519081900360640190fd5b8a1561071157610711828a8d61186f565b891561072257610722818a8c61186f565b86156107dd57886001600160a01b0316635e2e6a27338d8d8c8c6040518663ffffffff1660e01b815260040180866001600160a01b03166001600160a01b03168152602001858152602001848152602001806020018281038252848482818152602001925080828437600081840152601f19601f8201169050808301925050509650505050505050600060405180830381600087803b1580156107c457600080fd5b505af11580156107d8573d6000803e3d6000fd5b505050505b604080516370a0823160e01b815230600482015290516001600160a01b038416916370a08231916024808301926020929190829003018186803b15801561082357600080fd5b505afa158015610837573d6000803e3d6000fd5b505050506040513d602081101561084d57600080fd5b5051604080516370a0823160e01b815230600482015290519195506001600160a01b038316916370a0823191602480820192602092909190829003018186803b15801561089957600080fd5b505afa1580156108ad573d6000803e3d6000fd5b505050506040513d60208110156108c357600080fd5b5051925060009150506001600160701b0385168a900383116108e65760006108f5565b89856001600160701b03160383035b9050600089856001600160701b0316038311610912576000610921565b89856001600160701b03160383035b905060008211806109325750600081115b61096d5760405162461bcd60e51b815260040180806020018281038252602381526020018061215a6023913960400191505060405180910390fd5b60006109a161098384601963ffffffff611a0116565b6109958761271063ffffffff611a0116565b9063ffffffff611a6416565b905060006109b961098384601963ffffffff611a0116565b90506109eb6305f5e1006109df6001600160701b038b8116908b1663ffffffff611a0116565b9063ffffffff611a0116565b6109fb838363ffffffff611a0116565b1015610a3c576040805162461bcd60e51b815260206004820152600b60248201526a4d6572696469616e3a204b60a81b604482015290519081900360640190fd5b5050610a4a84848888611ab4565b60408051838152602081018390528082018d9052606081018c905290516001600160a01b038b169133917fd78ad95fa46c994b6551d0da85fc275fe613ce37657fb8d5e3d130840159d8229181900360800190a350506001600c55505050505050505050565b6040518060400160405280600c81526020016b4d6572696469616e204c507360a01b81525081565b6008546001600160701b0380821692600160701b830490911691600160e01b900463ffffffff1690565b6000610b0f338484611c6a565b5060015b92915050565b6006546001600160a01b031681565b60005481565b6001600160a01b038316600090815260026020908152604080832033845290915281205460001914610bb3576001600160a01b0384166000908152600260209081526040808320338452909152902054610b8e908363ffffffff611a6416565b6001600160a01b03851660009081526002602090815260408083203384529091529020555b610bbe848484611ccc565b5060019392505050565b60008051602061219d83398151915281565b601281565b60035481565b6005546001600160a01b03163314610c3a576040805162461bcd60e51b815260206004820152601360248201527226b2b934b234b0b71d102327a92124a22222a760691b604482015290519081900360640190fd5b600680546001600160a01b039384166001600160a01b03199182161790915560078054929093169116179055565b60095481565b600a5481565b6000600c54600114610cc0576040805162461bcd60e51b815260206004820152601060248201526f13595c9a591a585b8e881313d0d2d15160821b604482015290519081900360640190fd5b6000600c81905580610cd0610ad8565b50600654604080516370a0823160e01b815230600482015290519395509193506000926001600160a01b03909116916370a08231916024808301926020929190829003018186803b158015610d2457600080fd5b505afa158015610d38573d6000803e3d6000fd5b505050506040513d6020811015610d4e57600080fd5b5051600754604080516370a0823160e01b815230600482015290519293506000926001600160a01b03909216916370a0823191602480820192602092909190829003018186803b158015610da157600080fd5b505afa158015610db5573d6000803e3d6000fd5b505050506040513d6020811015610dcb57600080fd5b505190506000610dea836001600160701b03871663ffffffff611a6416565b90506000610e07836001600160701b03871663ffffffff611a6416565b90506000610e158787611d74565b60005490915080610e5257610e3e6103e8610995610e39878763ffffffff611a0116565b611ee7565b9850610e4d60006103e8611f39565b610ea1565b610e9e6001600160701b038916610e6f868463ffffffff611a0116565b81610e7657fe5b046001600160701b038916610e91868563ffffffff611a0116565b81610e9857fe5b04611fbd565b98505b60008911610ee05760405162461bcd60e51b81526004018080602001828103825260278152602001806120e86027913960400191505060405180910390fd5b610eea8a8a611f39565b610ef686868a8a611ab4565b8115610f2657600854610f22906001600160701b0380821691600160701b90041663ffffffff611a0116565b600b555b6040805185815260208101859052815133927f4c209b5fc8ad50758f13e2e1088ba56a560dff690a1c6fef26394f4c03821c4f928290030190a250506001600c5550949695505050505050565b60016020526000908152604090205481565b600b5481565b60046020526000908152604090205481565b600080600c54600114610fea576040805162461bcd60e51b815260206004820152601060248201526f13595c9a591a585b8e881313d0d2d15160821b604482015290519081900360640190fd5b6000600c81905580610ffa610ad8565b50600654600754604080516370a0823160e01b815230600482015290519496509294506001600160a01b039182169391169160009184916370a08231916024808301926020929190829003018186803b15801561105657600080fd5b505afa15801561106a573d6000803e3d6000fd5b505050506040513d602081101561108057600080fd5b5051604080516370a0823160e01b815230600482015290519192506000916001600160a01b038516916370a08231916024808301926020929190829003018186803b1580156110ce57600080fd5b505afa1580156110e2573d6000803e3d6000fd5b505050506040513d60208110156110f857600080fd5b5051306000908152600160205260408120549192506111178888611d74565b6000549091508061112e848763ffffffff611a0116565b8161113557fe5b049a5080611149848663ffffffff611a0116565b8161115057fe5b04995060008b118015611163575060008a115b61119e5760405162461bcd60e51b81526004018080602001828103825260278152602001806121336027913960400191505060405180910390fd5b6111a83084611fd5565b6111b3878d8d61186f565b6111be868d8c61186f565b604080516370a0823160e01b815230600482015290516001600160a01b038916916370a08231916024808301926020929190829003018186803b15801561120457600080fd5b505afa158015611218573d6000803e3d6000fd5b505050506040513d602081101561122e57600080fd5b5051604080516370a0823160e01b815230600482015290519196506001600160a01b038816916370a0823191602480820192602092909190829003018186803b15801561127a57600080fd5b505afa15801561128e573d6000803e3d6000fd5b505050506040513d60208110156112a457600080fd5b505193506112b485858b8b611ab4565b81156112e4576008546112e0906001600160701b0380821691600160701b90041663ffffffff611a0116565b600b555b604080518c8152602081018c905281516001600160a01b038f169233927fdccd412f0b1252819cb1fd330b93224ca42612892bb3f4f789976e6d81936496929081900390910190a35050505050505050506001600c81905550915091565b6040518060400160405280600b81526020016a04d6572696469616e2d4c560ac1b81525081565b6000610b0f338484611ccc565b6103e881565b600c546001146113c6576040805162461bcd60e51b815260206004820152601060248201526f13595c9a591a585b8e881313d0d2d15160821b604482015290519081900360640190fd5b6000600c55600654600754600854604080516370a0823160e01b815230600482015290516001600160a01b0394851694909316926114759285928792611470926001600160701b03169185916370a0823191602480820192602092909190829003018186803b15801561143857600080fd5b505afa15801561144c573d6000803e3d6000fd5b505050506040513d602081101561146257600080fd5b50519063ffffffff611a6416565b61186f565b600854604080516370a0823160e01b815230600482015290516114dc928492879261147092600160701b90046001600160701b0316916001600160a01b038616916370a0823191602480820192602092909190829003018186803b15801561143857600080fd5b50506001600c5550565b6005546001600160a01b031681565b6007546001600160a01b031681565b4284101561154d576040805162461bcd60e51b815260206004820152601160248201527013595c9a591a585b8e8811561412549151607a1b604482015290519081900360640190fd5b6003546001600160a01b03808916600081815260046020908152604080832080546001808201909255825160008051602061219d8339815191528186015280840196909652958d166060860152608085018c905260a085019590955260c08085018b90528151808603909101815260e08501825280519083012061190160f01b6101008601526101028501969096526101228085019690965280518085039096018652610142840180825286519683019690962095839052610162840180825286905260ff89166101828501526101a284018890526101c28401879052519193926101e280820193601f1981019281900390910190855afa158015611656573d6000803e3d6000fd5b5050604051601f1901519150506001600160a01b0381161580159061168c5750886001600160a01b0316816001600160a01b0316145b6116db576040805162461bcd60e51b815260206004820152601b60248201527a4d6572696469616e3a20494e56414c49445f5349474e415455524560281b604482015290519081900360640190fd5b6116e6898989611c6a565b505050505050505050565b600260209081526000928352604080842090915290825290205481565b600c54600114611758576040805162461bcd60e51b815260206004820152601060248201526f13595c9a591a585b8e881313d0d2d15160821b604482015290519081900360640190fd5b6000600c55600654604080516370a0823160e01b81523060048201529051611868926001600160a01b0316916370a08231916024808301926020929190829003018186803b1580156117a957600080fd5b505afa1580156117bd573d6000803e3d6000fd5b505050506040513d60208110156117d357600080fd5b5051600754604080516370a0823160e01b815230600482015290516001600160a01b03909216916370a0823191602480820192602092909190829003018186803b15801561182057600080fd5b505afa158015611834573d6000803e3d6000fd5b505050506040513d602081101561184a57600080fd5b50516008546001600160701b0380821691600160701b900416611ab4565b6001600c55565b60408051808201825260198152787472616e7366657228616464726573732c75696e743235362960381b60209182015281516001600160a01b0385811660248301526044808301869052845180840390910181526064909201845291810180516001600160e01b031663a9059cbb60e01b1781529251815160009460609489169392918291908083835b602083106119185780518252601f1990920191602091820191016118f9565b6001836020036101000a0380198251168184511680821785525050505050509050019150506000604051808303816000865af19150503d806000811461197a576040519150601f19603f3d011682016040523d82523d6000602084013e61197f565b606091505b50915091508180156119ad5750805115806119ad57508080602001905160208110156119aa57600080fd5b50515b6119fa576040805162461bcd60e51b815260206004820152601960248201527813595c9a591a585b8e881514905394d1915497d19052531151603a1b604482015290519081900360640190fd5b5050505050565b6000811580611a1c57505080820282828281611a1957fe5b04145b610b13576040805162461bcd60e51b815260206004820152601460248201527364732d6d6174682d6d756c2d6f766572666c6f7760601b604482015290519081900360640190fd5b80820382811115610b13576040805162461bcd60e51b815260206004820152601560248201527464732d6d6174682d7375622d756e646572666c6f7760581b604482015290519081900360640190fd5b6001600160701b038411801590611ad257506001600160701b038311155b611b18576040805162461bcd60e51b81526020600482015260126024820152714d6572696469616e3a204f564552464c4f5760701b604482015290519081900360640190fd5b60085463ffffffff42811691600160e01b90048116820390811615801590611b4857506001600160701b03841615155b8015611b5c57506001600160701b03831615155b15611bcd578063ffffffff16611b8a85611b7586612061565b6001600160e01b03169063ffffffff61207316565b600980546001600160e01b03929092169290920201905563ffffffff8116611bb584611b7587612061565b600a80546001600160e01b0392909216929092020190555b600880546001600160701b0319166001600160701b0388811691909117600160701b600160e01b031916600160701b8883168102919091176001600160e01b0316600160e01b63ffffffff871602179283905560408051848416815291909304909116602082015281517f1c411e9a96e071241c2f21f7726b17ae89e3cab4c78be50e062b03a9fffbbad1929181900390910190a1505050505050565b6001600160a01b03808416600081815260026020908152604080832094871680845294825291829020859055815185815291517f8c5be1e5ebec7d5bd14f71427d1e84f3dd0314c0f7b2291e5b200ac8c7c3b9259281900390910190a3505050565b6001600160a01b038316600090815260016020526040902054611cf5908263ffffffff611a6416565b6001600160a01b038085166000908152600160205260408082209390935590841681522054611d2a908263ffffffff61209816565b6001600160a01b03808416600081815260016020908152604091829020949094558051858152905191939287169260008051602061217d83398151915292918290030190a3505050565b600080600560009054906101000a90046001600160a01b03166001600160a01b031663017e7e586040518163ffffffff1660e01b815260040160206040518083038186803b158015611dc557600080fd5b505afa158015611dd9573d6000803e3d6000fd5b505050506040513d6020811015611def57600080fd5b5051600b546001600160a01b038216158015945091925090611ed3578015611ece576000611e32610e396001600160701b0388811690881663ffffffff611a0116565b90506000611e3f83611ee7565b905080821115611ecb576000611e7260086109df611e63868663ffffffff611a6416565b6000549063ffffffff611a0116565b90506000611ea7611e8a84600863ffffffff611a0116565b611e9b86601163ffffffff611a0116565b9063ffffffff61209816565b90506000818381611eb457fe5b0490508015611ec757611ec78782611f39565b5050505b50505b611edf565b8015611edf576000600b555b505092915050565b60006003821115611f2a575080600160028204015b81811015611f2457809150600281828581611f1357fe5b040181611f1c57fe5b049050611efc565b50611f34565b8115611f34575060015b919050565b600054611f4c908263ffffffff61209816565b60009081556001600160a01b038316815260016020526040902054611f77908263ffffffff61209816565b6001600160a01b038316600081815260016020908152604080832094909455835185815293519293919260008051602061217d8339815191529281900390910190a35050565b6000818310611fcc5781611fce565b825b9392505050565b6001600160a01b038216600090815260016020526040902054611ffe908263ffffffff611a6416565b6001600160a01b0383166000908152600160205260408120919091555461202b908263ffffffff611a6416565b60009081556040805183815290516001600160a01b0385169160008051602061217d833981519152919081900360200190a35050565b6001600160701b0316600160701b0290565b60006001600160701b0382166001600160e01b0384168161209057fe5b049392505050565b80820182811015610b13576040805162461bcd60e51b815260206004820152601460248201527364732d6d6174682d6164642d6f766572666c6f7760601b604482015290519081900360640190fdfe4d6572696469616e3a20494e53554646494349454e545f4c49515549444954595f4d494e5445444d6572696469616e3a20494e53554646494349454e545f4f55545055545f414d4f554e544d6572696469616e3a20494e53554646494349454e545f4c49515549444954595f4255524e45444d6572696469616e3a20494e53554646494349454e545f494e5055545f414d4f554e54ddf252ad1be2c89b69c2b068fc378daa952ba7f163c4a11628f55a4df523b3ef6e71edae12b1b97f4d1f60370fef10105fa2faae0126114a169c64845d6126c9a265627a7a72315820f63a2a9c2f1031af0a8db8d8f78786e6b1c1aadd3ff58751f609e7ea60426c6164736f6c63430005100032454950373132446f6d61696e28737472696e67206e616d652c737472696e672076657273696f6e2c75696e7432353620636861696e49642c6164647265737320766572696679696e67436f6e747261637429a265627a7a72315820c877f80e2ba38ef58c7b7eeff52428ea33a9535d8fad209562671c5f5d7391c464736f6c63430005100032",
  "source": "pragma solidity =0.5.16;\n\nimport './interfaces/IMeridianFactory.sol';\nimport './MeridianPair.sol';\n\ncontract MeridianFactory is IMeridianFactory {\n    bytes32 public constant INIT_CODE_PAIR_HASH = keccak256(abi.encodePacked(type(MeridianPair).creationCode));\n\n    address public feeTo;\n    address public feeToSetter;\n\n    mapping(address => mapping(address => address)) public getPair;\n    address[] public allPairs;\n\n    event PairCreated(address indexed token0, address indexed token1, address pair, uint);\n\n    constructor(address _feeToSetter) public {\n        feeToSetter = _feeToSetter;\n    }\n\n    function allPairsLength() external view returns (uint) {\n        return allPairs.length;\n    }\n\n    function createPair(address tokenA, address tokenB) external returns (address pair) {\n        require(tokenA != tokenB, 'Meridian: IDENTICAL_ADDRESSES');\n        (address token0, address token1) = tokenA < tokenB ? (tokenA, tokenB) : (tokenB, tokenA);\n        require(token0 != address(0), 'Meridian: ZERO_ADDRESS');\n        require(getPair[token0][token1] == address(0), 'Meridian: PAIR_EXISTS'); // single check is sufficient\n        bytes memory bytecode = type(MeridianPair).creationCode;\n        bytes32 salt = keccak256(abi.encodePacked(token0, token1));\n        assembly {\n            pair := create2(0, add(bytecode, 32), mload(bytecode), salt)\n        }\n        IMeridianPair(pair).initialize(token0, token1);\n        getPair[token0][token1] = pair;\n        getPair[token1][token0] = pair; // populate mapping in the reverse direction\n        allPairs.push(pair);\n        emit PairCreated(token0, token1, pair, allPairs.length);\n    }\n\n    function setFeeTo(address _feeTo) external {\n        require(msg.sender == feeToSetter, 'Meridian: FORBIDDEN');\n        feeTo = _feeTo;\n    }\n\n    function setFeeToSetter(address _feeToSetter) external {\n        require(msg.sender == feeToSetter, 'Meridian: FORBIDDEN');\n        feeToSetter = _feeToSetter;\n    }\n}",
  "sourcePath": "/Users/johnjudge/Desktop/Code/Meridian/backend/swap/amm-evm-example/meridian-swap-core/contracts/MeridianFactory.sol",
  "compiler": {
    "name": "solc",
    "version": "0.5.16+commit.9c3226ce.Emscripten.clang"
  },
  "schemaVersion": "3.4.2",
  "updatedAt": "2024-06-04T21:39:21.387Z",
  "devdoc": {
    "methods": {}
  },
  "userdoc": {
    "methods": {}
  }
}